:020000041000EA
:1000000000B5324B212058609868022188439860DF
:10001000D860186158612E4B002199600221596106
:100020000121F02299502B49196001219960352056
:1000300000F044F80222904214D00621196600F024
:1000400034F8196E01211966002018661A6600F04E
:100050002CF8196E196E196E052000F02FF8012189
:100060000842F9D1002199601B49196000215960AB
:100070001A491B48016001219960EB211966A021F2
:10008000196600F012F800219960164914480160C1
:100090000121996001BC002800D000471248134993
:1000A000086003C880F30888084703B5996A0420EC
:1000B0000142FBD001200142F8D103BD02B5186610
:1000C0001866FFF7F2FF186E186E02BD00000240BE
:1000D000000000180000070000035F00212200005C
:1000E000F4000018222000A00001001008ED00E03C
:1000F00000000000000000000000000074B24E7A12
:1001000000200420F7010010C3010010C5010010F9
:10011000C1010010C1010010C1010010C101001097
:10012000C1010010C1010010C1010010C701001081
:10013000C1010010C1010010C9010010CB01001065
:10014000CD010010CD010010CD010010CD01001037
:10015000CD010010CD010010CD010010CD01001027
:10016000CD010010CD010010CD010010CD01001017
:10017000CD010010CD010010CD010010CD01001007
:10018000CD010010CD010010CD010010CD010010F7
:10019000CD010010CD010010CD010010CD010010E7
:1001A000CD010010CD010010CD010010CD010010D7
:1001B000CD010010CD010010CD010010CD010010C7
:1001C00000BE00BE00BE00BE00BE00BEEFF3058054
:1001D000103800BEF2EB88710C9E0010349E0010A7
:1001E0003402001090A31AE700201F49086006C8D7
:1001F00081F3088810471D48006800282FD10DA4FE
:100200000ECC002902D000F012F8F9E71849194A7B
:10021000002000E001C19142FCD1174988471749ED
:1002200088471749884700BEFDE701C901C29A42C5
:10023000FBD37047349E0010C00000203819002006
:10024000ACB600100000042000000420ACB6001082
:10025000001004200010042000000000704709482E
:1002600004F052F90047000008ED00E0000000D063
:100270003819002034270020E92C00106D0D0010E3
:10028000112E00105756000006005250ABB36053B9
:10029000909B001006005250861C0302A09B001089
:1002A000060052505422A29DAC9B001005005250F3
:1002B000DE65F468ACB60010F8B5C0460448054BDE
:1002C00010B5834203D0044B002B00D0984710BDDB
:1002D000381900203819002000000000064807499E
:1002E000091A8B10C90FC91810B5491003D0044B57
:1002F000002B00D0984710BD381900203819002075
:100300000000000010B5074C2378002B09D1FFF73F
:10031000D5FF054B002B02D0044800E000BF0123AD
:10032000237010BD401A00200000000058940010F7
:10033000054B10B5002B03D00449054800E000BF71
:10034000FFF7CCFF10BDC04600000000441A00209B
:100350005894001070B504000D1E05D1406804F0DB
:10036000D1FF0020656070BD4668300004F0B8FF22
:10037000030060600020002BF5D1300004F0C2FFC4
:100380000220F0E770B5144B692102269E5F2024FD
:1003900000230D251148124A002B15D18E420ED094
:1003A00093691C42FCD11160037801300D3B594226
:1003B0004B410178DBB20029EED1002070BD93697A
:1003C0001C42FCD11560EBE793691C42EBD09369AA
:1003D0001C42F9D1E7E7C0466C2400205894001075
:1003E00000800340F0B53C4B692402201B5E2026B0
:1003F0009C460D270023394D3948002B1DD1A445BB
:1004000016D083691E42FCD104602B7801350D3B68
:100410005C4263412C78DBB2002CEED14B78022B8E
:1004200027D011D84B880F2B3BD814700020F0BD7B
:1004300083691E42FCD10760E3E783691E42E3D073
:1004400083691E42F9D1DFE7032BEFD10B78012B33
:100450002AD0042BEAD14B880A792248D908002AED
:1004600032D007221A4001239340425C1343435485
:10047000DCE70B78042B23D005D8012B1AD0022BF4
:10048000D4D15480D2E7082BD0D148881649C3086C
:10049000CB5C072101400B41190001230B40538025
:1004A000C4E702241470C1E74B88104A89885B00B6
:1004B0009952BBE74B880D495B005B5A5380B5E707
:1004C00048880849C308E3E707221340063A9A40E0
:1004D000435C93434354A9E76C24002078940010B4
:1004E00000800340381F0020CC1F0020042400207F
:1004F000F8B5436804000F001600002B00D09847A1
:100500002000A57F226A0235290023691030984710
:1005100002280FD06269E37F94466344A361A583F8
:1005200000280BD18021002049420F431F70A3698E
:100530005E70F8BD00236361A361A3830820F8E720
:10054000F0B54E46DE4657464546E0B504008946BE
:1005500089B0052B68D10B00013BDBB2032B0ED910
:10056000032300209B000343FF224046904318438F
:1005700009B03CBC90469946A246AB46F0BDD07847
:1005800011790002014308B28A46029000294FD037
:1005900061495800415A51454AD35178927809022D
:1005A0000A4311000192802250465202121A9142CF
:1005B0004CDC5A4A06AED25C0D000392584A05AF95
:1005C000D35C337000237370B3804B46B3710B0060
:1005D00053449BB29B463A0031002000236875804B
:1005E0009847002830D13A78002A22D10135ADB29F
:1005F000AB45F0D1039B002B61D05346DD1DED10C0
:10060000EDB2A37F200002339B46AB445946226AD9
:1006100023691030984702281AD100236361A3830D
:10062000A361022300209DE70322FFF761FF9FE7FC
:10063000032249462000FFF75BFF030080461B06AC
:100640008007800F9B0E8DE70422F2E70222F0E77D
:100650006269E37F94465A466344A283A3610028FB
:10066000DFD14A461A70A36900215D700023002D76
:1006700006D0A269D21801339170DAB29542F8D847
:1006800002237370039B0025002B1CD1019B99460C
:100690004B465B193A00310073802000236898476D
:1006A000A269013594467A886B006344110A197077
:1006B0005A70ABB29A45EBD80023002052E7029B58
:1006C0005D00EDB29DE707239946063B9B460CE093
:1006D00049465846294088400100EA08985C014391
:1006E00099540135ADB2AA45E6D9019B3A005B1990
:1006F00073803100236820009847A3697A88023309
:10070000002AE5D14946584629408840EA08995CC4
:1007100081439954E5E7C04650980010589800105E
:100720004C980010F0B54546DE4657464E46E0B5BB
:100730000400884687B0052B00D06FE00B00053B16
:1007400059424B4103215B420B4051789778090293
:100750000F4339B20191D178167909020E4332B2B2
:1007600001339146042B48D004AD2B7001236B70EC
:1007700033006F80AB8043462900AB7120002368B3
:1007800003AA9847002854D102AB1B799A461A1E37
:1007900050D1032329006B7003AA236820009847D7
:1007A0002000A57F226A053529002369103098476B
:1007B000022837D06269E37F94466344A361A5832E
:1007C000002833D142461A70A369019A3F0A9A70F1
:1007D0004A465F70A369360ADE701A710020002352
:1007E0009B000343FF2258469043184307B03CBC8C
:1007F00090469946A246AB46F0BD002E04D0FF239A
:1008000003221B029E4215D1822304AD5B002B8084
:1008100033005A1E93416F809BB2ABE70322FFF770
:1008200067FEE3E753466361A361A38302230020CD
:10083000D6E7042241462000FFF75AFE0300834614
:100840001B068007800F9B0ECAE7C046F0B54E46D8
:100850004546DE465746E0B504000E0015008BB055
:10086000052B0AD90F2900D1A4E001217B276A7941
:10087000002A02D0063B9A420BD00322310020000E
:10088000FFF736FE0BB03CBC90469946A246AB46FD
:10089000F0BDE8782B790002034318B29846029025
:1008A000002BEAD09F42E8D35B00042902D14346E3
:1008B0000733DB109A42E0D16A78AB781202134317
:1008C0001AB2180001938023039242465B029B1ADE
:1008D000984200DDBFE0012308AF39707B70BE7124
:1008E00004296BD0AB1D019D994605932B00434411
:1008F00004939BB29B4607AB9A46330026004C46B6
:1009000099462278637812021343BB80524639001D
:10091000300033687D809847002800D0A7E0534618
:100920001A78002A00D0AAE00135ADB20234AB45F6
:10093000E7D103237B70059B34004E4699466B46F6
:100940001B8A019D9B46330026004C46994622781F
:100950006378120213437D800135BB805246390013
:1009600030003368ADB298470234AB45EFD1340064
:100970004E462000A57F226A0535290023691030E4
:10098000984702286DD06269E37F94466344A3616F
:10099000A583002869D11E70019AA369120A5A70B2
:1009A000039A00209A704246A369120ADA70029AEA
:1009B0001A7167E7F6270421FF0058E700239946DC
:1009C00007AB9A4607232A009B4653464D46B2463C
:1009D00091461E005A46019B2A405B197B80EB081A
:1009E0004B449B793900134101221340BB803200F4
:1009F000200023689847002848D13278002A47D140
:100A00000135ADB2A845E5D1330056469A460323D9
:100A10007B7000234D46994607339B462B004D467D
:100A2000B146464698465A46019B2A405B197B8050
:100A3000EB0843449B790135134101221340BB80ED
:100A40005246390020002368ADB29847AE42EAD141
:100A5000B0464E468DE7022231002000FFF748FDE8
:100A600010E700236361A361A38308200AE7340031
:100A70004E46042231002000FFF73AFD02E7340021
:100A80004E4631002000FFF733FDFBE65646F0E707
:100A90005646F6E7F0B54546DE4657464E46E0B5C3
:100AA0000400884687B0072B00D090E051789378F7
:100AB00009020B43180019B20193012304AD2B80E6
:100AC0000023AB80434600911179D7788A4691790B
:100AD00052798B4691466880AB71290020002368CB
:100AE00003AA984700285BD102AB1A79002A58D193
:100AF00053463F021F433BB29A464B465A461B029F
:100B000013431BB29946022329006B7003AA236882
:100B10002000984751464A4602ABDB888A433B4057
:100B200013430122AB806A7029002000236803AAC6
:100B30009847002834D102AB1B799B461A1E30D14E
:100B4000032329006B7003AA236820009847200024
:100B5000A57F226A073529002369103098470228AB
:100B600039D06269E37F94466344A361A58300287A
:100B700035D142461A70019BA2691B0A5370009B33
:100B80003F0A93705246A3690020DF701A714B46EA
:100B9000A2699BB21B0A53714B469371002309E073
:100BA000042241462000FFF7A3FC0600800733061D
:100BB000800F9B0E9B000343FF223000904318439D
:100BC00007B03CBC90469946A246AB46F0BD032216
:100BD000FFF78EFCF4E75B466361A361A383022306
:100BE0000020E7E7F0B5C64683079A0F0006904657
:100BF00000B5800E002B20D100281ED1544B492176
:100C000002255D5F202400230D265248524A002B06
:100C100000D089E08D4200D181E093691C42FCD173
:100C20001160037801300D3B59424B410178DBB232
:100C30000029ECD104BC9046F0BD0D27444B542450
:100C400002229A5E20260023BC46444D4249002BD6
:100C500052D1A2424AD08B691E42FCD10C602B7843
:100C600001350D3B5C4263412C78DBB2002CEED1A8
:100C700043469F003A4BFD5800232C78002C13D09C
:100C800020260D273449002B42D194423BD08B695A
:100C90001E42FCD10C602B7801350D3B5C42634158
:100CA0002C78DBB2002CEED10C2845D95B202D4CE2
:100CB000002320250D262849002B10D1824242D046
:100CC0008B691D42FCD10860237801340D3B5842EA
:100CD00043412078DBB20028ACD0002BEED08B69EA
:100CE0001D42F0D08B691D42F9D1ECE78B691E42A1
:100CF000FCD163460B60AEE78B691E42AED08B69B8
:100D00001E42F9D1AAE78B691E42FCD10F60BEE7F3
:100D10008B691E42BED08B691E42F9D1BAE7936936
:100D20001C42FCD1166078E793691C4200D177E73A
:100D300093691C42F8D173E70B4B8000C4582078AC
:100D40000028B5D176E78B691D42FCD10E60B7E76C
:100D50006C240020D494001000800340F094001014
:100D6000909800108C9400105C980010F0B5DE464E
:100D70004E4645465746E0B5C04BC14AE7B01A60FB
:100D800004F08CFD9621BF48890101F01BFD19205C
:100D900000F010FBD02380221B0692045A6202212D
:100DA000042000F0EFFA0221052000F0EBFAB64B28
:100DB000002202269E5F202462230D25B348B149FC
:100DC000002A00D0EFE09E4200D1F4E08A6914428C
:100DD000FCD10B60027801300D3A53425A4103783E
:100DE000D2B2002BECD1AA4A02A9059209220A74B8
:100DF000A84A0A93089309930B93A74B0392A74A17
:100E00001B680492A64A5868079207F089F89D4C1F
:100E10000CAD0D269C4B52200227DF5F20210023C2
:100E2000B446A04A002B00D0CAE0874200D1CFE0F0
:100E3000A3691942FCD12060137801320D3B58425E
:100E400043411078DBB20028ECD1934B09211B6899
:100E500026A85A6807F0D0F8002326AFBA46B8464D
:100E60001F0053463A0028001B788F4903F008FB07
:100E7000287800281BD00D26834B202102229B5E60
:100E8000B1469C462A000023002B00D0ACE08445EC
:100E900000D1A3E0A3691942FCD12060137801328C
:100EA0000D3B584243411078DBB20028ECD10123BE
:100EB0009C460137E244092FD3D1902202AB9B1804
:100EC0001B784746984626ABD81D7849784B8F3A11
:100ED00018E05B081A421ED15B081A4220D15B0859
:100EE0001A4222D15B081A4224D15B081A4226D149
:100EF0005B081A4228D15B081A422AD101375B08E5
:100F000087422CD03E7873401A42E2D05B084B40B7
:100F10009BB21A42E0D05B084B409BB21A42DED033
:100F20005B084B409BB21A42DCD05B084B409BB243
:100F30001A42DAD05B084B409BB21A42D8D05B0809
:100F40004B409BB21A42D6D05B084B409BB21A4230
:100F5000D4D05B084B4001379BB28742D2D1982155
:100F6000972002AA5218117802AA121812780902C0
:100F70000A439A427FD142460B23012A3CD90320DF
:100F80005F46874301213E00FC220E439643370013
:100F90009B001F43BB4687433800084390431843D8
:100FA000FFF720FE35E78A69144200D111E78A690C
:100FB0001442F8D10DE78A691442FCD10D6005E7AF
:100FC000A369194200D136E7A3691942F8D132E783
:100FD000A3691942FCD16346236029E7A36919423A
:100FE000FCD14B46236055E7A369194200D154E771
:100FF000A3691942F8D150E7042302AAFF335384AE
:10100000130091229B181F7802AB187C002851D046
:101010000023059A04E001339BB20832834249D28F
:101020001178B942F7D102A953688C4691229A46A9
:1010300039000623624403A8D047830701000190CA
:1010400000069A0F800E002B00D189E10323FC21BA
:10105000019F1A409F43174380008F4307439F43DC
:1010600017438F430743BB469F433A438A4310438A
:10107000FFF7B8FDCDE6082381E7C0460424002031
:10108000ADDEEFBE008003406C24002018950010F8
:10109000980F0020E5030010D810002085030010F1
:1010A00055030010309500105495001001A0FFFF6B
:1010B000FFFF0000049B002B00D1F1E0012239006A
:1010C00003A89847222202AB9B181B7802339A464A
:1010D00051460B9A079B07A89847022800D1C1E008
:1010E000232202AB9B18089A1B789446524663440D
:1010F00002A909930A84002800D0B8E08022524255
:101100003A431A700123099A5370019AFE339A43A5
:10111000019202AB1B8C002B1CD04246002A0FD040
:101120001A1FFC2A00D8BEE0FF225F460423974323
:101130001F43380090431843BB46FFF753FD68E652
:101140000B9A079B002107A89847434602AA0893D9
:1011500009931384FF235A469A43100098439346F9
:10116000FFF740FD02AB1B8C00270022002B2CD088
:10117000089B3A00DB5D7D493B7019A803F080F9BC
:101180005C2202AB9B181A78002A19D00D26784BE6
:10119000202002215B5EB0469C46002319A9002B4B
:1011A0004CD1944544D0A3691842FCD122600B78FD
:1011B00001310D3B5A4253410A78DBB2002AEED18D
:1011C00002AB1A8C01379742D2DB6A4919A803F0A7
:1011D00057F95C2202AB9B181F78002F18D00D2600
:1011E000634B20220220185EB446002319A9002B6D
:1011F0002BD1B84230D0A3691A42FCD127600B78BA
:1012000001310D3B5F427B410F78DBB2002FEED105
:1012100002AB1B8C0027002B00D1FAE53978564829
:1012200004F030FB02AB1B8C01379F42F6DBF0E58C
:10123000A3691842FCD143462360B4E7A36918426E
:10124000B4D0A3691842F9D1B0E7A3691A42D5D046
:10125000A3691A42F9D1D1E7A3691A42FCD16346C6
:101260002360C8E7002302AA089309931384FF238D
:10127000019A02209A43F73B1A4317000192032375
:10128000FC229F438000974307439F4397430743B4
:10129000BB469F433B0093431843FFF7A3FCB8E5CD
:1012A00005239A4614E7089A023B90469FB24146AE
:1012B0009C463E00012247460A70C4440021B046C5
:1012C0002E4B2F4819E05B081A421FD15B081A42C7
:1012D00021D15B081A4223D15B081A4225D15B0851
:1012E0001A4227D15B081A4229D15B081A422BD136
:1012F00001318EB25B0846452DD27E5C73401A42A6
:10130000E1D05B0843409BB21A42DFD05B08434008
:101310009BB21A42DDD05B0843409BB21A42DBD03D
:101320005B0843409BB21A42D9D05B0843409BB252
:101330001A42D7D05B0843409BB21A42D5D05B0813
:1013400043409BB21A42D3D05B08013143408EB276
:101350009BB24645D1D3624613701B0A5370F9E61F
:101360000F00002800D1D4E689E7C046A4940010FD
:101370006C240020C0940010CC940010FFFF0000EB
:1013800001A0FFFF094A830094464022634410B540
:101390001C68C0006240C0241440802252011343E4
:1013A0001C60034B9C466044416010BD04C001407A
:1013B000004001400123D0228340120693629361D2
:1013C000094A83009446402263441968C0004A4099
:1013D000C02111408022520113431960034B9C46E7
:1013E000052360444360704704C001400040014051
:1013F000024B18688007C00F7047C04600C0064007
:10140000F8B5EFF3108772B60E4E3368002BFCD0A0
:10141000BFF35F8FCB08C4180725A446C45C012323
:101420000D40AB4018002040234208D162462343C0
:101430001370BFF35F8F306087F31088F8BD100022
:1014400001F0EAFC2C0100D0F8B5CE4647468C46A8
:1014500080B5EFF3108872B6214D2C68002CFCD0BB
:10146000BFF35F8F9A422CD8D4080721055D061977
:10147000012411408C402C421FD007218946063997
:1014800009E0D408055D06194C460F001440A7403A
:101490003C002F4211D001329342F2D2012040424F
:1014A000BFF35F8F00220E4B1A6088F3108800286C
:1014B0000FDB0CBC90469946F8BD2C4310003470ED
:1014C000EEE7BFF35F8F00232B6088F310880120C5
:1014D00040426346002BECD0089801F09DFCC046CA
:1014E0002C0100D00021044B044ABFF35F8F02C3DC
:1014F0009342FAD17047C046000100D0800100D06D
:10150000044A1078431CDBB2172B00D91023137048
:101510007047C046E80F002000B5054B83B00100BE
:10152000009318221F230348FFF78EFF03B000BD6E
:10153000A0980010341F002001238340002904D00C
:10154000034A1360034A13607047034A1360FBE7C2
:1015500080E200E000E100E080E100E00123834060
:10156000014A13607047C04600E200E0084B1030AB
:101570009B688000C358002B07D0064A00209B1AA6
:101580002F229A424041C0B270470020FCE7C0467B
:1015900000ED00E0EC0F0020024B10309B68800053
:1015A000C058704700ED00E070B50D00EFF31086F5
:1015B00072B60F4A1368002BFCD0BFF35F8F0D4B40
:1015C00010309B6884001B590B4A934203D09D4204
:1015D00001D001F039FC074B9B681D51BFF35F8FB1
:1015E000BFF35F8F0022024B1A6086F3108870BD34
:1015F000240100D000ED00E0CD010010F0B5574609
:101600004E464546DE46E0B5894683B005001700E4
:10161000EFF3108A72B65D4A1368002BFCD0BFF35B
:101620005F8F00205A4B18569B4600286CDB5A46A9
:101630004400584E2418A400331998469B7910355D
:101640001370554BAA009B6801929B589C469B1BAC
:101650002F2B28D8012261469143CB79BB4208D871
:101660006AE053009B189B00F318DD79BD4251D905
:10167000190006228A56002AF3DA0B1D9B46474EB4
:1016800043465C46043B1B1B1B05454C5B0D23433B
:101690008B80887141468A714A46424B8E800B602E
:1016A000CF718A601BE0404B9C4542D142463F4B84
:1016B000023413803E4B3619043B9E1B3605384BD3
:1016C000760D1E433B4B56809380FF23D771937159
:1016D00043464A469A60012342461A43944661466D
:1016E0002D4B019A9B689950BFF35F8FBFF35F8FBB
:1016F0000022264B1A608AF3108803B03CBC904647
:101700009946A246AB46F0BD01F09EFB5B46002029
:1017100018568CE70B1D9B468B8804345B051B1504
:101720005B4436199E1BE0233605760D1B021E43D3
:10173000A6E701F089FBB9E745460B001E489B1B55
:101740005B415843000D194B2B80A31C9C46B444AD
:101750006546174B0434043B5B1B1B05104D5B0DAA
:10176000AC462B43454636196B800B1F9E1B6346C8
:10177000A87148463605760D1E430A4BAE80EF71C0
:10178000A8600B60434613439C46A8E7240100D0A1
:1017900065240020EC0F002000ED00E001BD0000FA
:1017A00000E0FFFF01488047CD01001000A1FFFFCE
:1017B0001C10002001BDFFFFAAAA0000F0B5DE4604
:1017C00057464E464546E0B50C0083B0EFF310890E
:1017D00072B6594A1368002BFCD0BFF35F8F574B8A
:1017E0009A68030010339F00D559554A9046954298
:1017F00032D0A54243D0534EAA1B2F2A2CD8012207
:10180000824092465146504A126811400191514619
:101810004E4A1160BFF35F8FEFF305829346002AB3
:1018200033D101232A009A4393689C4208D178E07F
:101830004B005B189B00F3189968A1422AD01A004C
:10184000062151560029F3DA019B002B19D052468C
:101850003F4B1A603C4B1A60384B9B68DD51BFF31D
:101860005F8FBFF35F8F0022334B1A6089F31088BC
:1018700003B03CBC90469946A246AB46F0BD15006D
:10188000EAE75246314B1A60E6E79342C9D001F0CD
:10189000DBFAC6E706215956002922DB4A00501818
:1018A000800034188046A0689860E079D8710620DE
:1018B00020569871A0797F2824D8A488F01A64054E
:1018C000241544440019E0240005400D240220435F
:1018D000988052181F4B9200B6181A781970B2717E
:1018E000B2E7594600290FD1FF3191711A49918011
:1018F00018490A789A71194A9B1B5B415A43120D89
:101900000A70A1E71648E3E7164A1749D21A083ABF
:101910005002400D01439980144952080A43DA806D
:1019200092E70621515613000029B7DA5A46002AD9
:10193000EAD14546DCE7C046240100D000ED00E0D6
:10194000CD010010EC0F002000E100E080E100E09C
:1019500080E200E06524002001BDFFFFAAAA00008C
:1019600001BD00002610002000F0FFFF00F8FFFF7F
:10197000F0B5EFF3058101240443EFF3108672B64E
:10198000214A1368002BFCD0BFF35F8F1F4B05006B
:101990001F4AED1A6D416A43120D1E4D8900AF6852
:1019A00052B27F58A7421CD00621595691421CD0F2
:1019B00012215956914222D01E215956914220D0CF
:1019C0002A2159560324914210D0134B19781A70CA
:1019D0008171BFF35F8F00220B4B1A6086F3108872
:1019E000F0BDAB680D4C5C50EFE7002461000919B5
:1019F00089005B18FF21997109499980E5E7012465
:101A0000F4E70224F2E7C046240100D0EC0F0020E6
:101A1000AAAA000000ED00E065240020CD0100101E
:101A200001BDFFFF054B064A1360064A1360536071
:101A30009360D360136153619361704780808080AD
:101A400000E400E004E400E000B5074B83B00100CF
:101A50000093002205230548FFF7F6FC002801DB70
:101A60001F23181A03B000BDBC9800106A24002080
:101A7000024B9C466144890001607047400000347D
:101A800010B50400FFF73CFD01002000FFF7F0FF58
:101A9000FF232371BFF35F8F10BDC04610B5040054
:101AA000FFF72EFD01002000FFF7E2FFFF23A380D8
:101AB000BFF35F8F10BDC04610B504000120FFF7D3
:101AC0002BFD034BC3189B002360BFF35F8F10BD3A
:101AD00040000034034B9C46614489000160BFF321
:101AE0005F8F70474000003483680B4810B5844610
:101AF00061446244090112019A18591854684B68EC
:101B000001209C4201D802D00020C0B210BD126852
:101B10000B689A42F9D8F7E7FFFFFF0F0A4B1968E5
:101B2000EFF3108072B60A68002AFCD0BFF35F8F13
:101B30001B68BFF35F8F00221A6080F3108840BFDC
:101B4000002000217047C04630240020F8B55746D9
:101B500045464E46DE46E0B599460CAB19780DABCE
:101B60001B78050090469A460768002912D1BE7B73
:101B7000002E45D074003B68A419033C1B195A7809
:101B80003100BA73002A00D1FA7300229A705A7099
:101B90001A7003E00E004C006418033C2C4B00222A
:101BA0009C46AB6861449C464346090161440B6016
:101BB0004B464B600A9B8B600B9BCB603B681B19B1
:101BC0009A705A701A707B7B9B46002B2CD0320087
:101BD0005946B8687B6898473A68002817D05B4632
:101BE00058465B005B441419033BA070D118D35CCA
:101BF000002B00D063705B460E707B73B34514D02E
:101C000030003CBC90469946A246AB46F8BD5B46C8
:101C10005B005B44033BD3189E701119125D002AD0
:101C200000D05A705B460B707E7342464B46287D4F
:101C300000F03CFB041E06D05346002B03D13100BC
:101C4000286800F081FD0E9B002BD9D01C70D7E7CF
:101C5000FFFFFF0FF0B5DE4657464E4645460023D0
:101C6000E0B58BB00893664B8200D45800239B46A6
:101C7000099000F0A1FA626806000F00EFF31085EA
:101C800072B61368002BFCD0BFF35F8F23689C46AD
:101C90005B7B9946002B68D0A2685A4B90464B4418
:101CA0001B01984443461A685B6810001900801BAA
:101CB000B941002963DD099800F0F8FA00230022F9
:101CC000984600230692079300239A466368BFF361
:101CD0005F8F5A461A6085F310885346002B08D14F
:101CE0000028C6D10BB03CBC90469946A246AB46F4
:101CF000F0BD089B414618024B461843D047626826
:101D000006000F00EFF3108572B61368002BFCD0AD
:101D1000BFF35F8F002F4FDB33003B4302D02369BB
:101D2000002B60D12368DA7B002A07D051008A1883
:101D300019688C4649466244033A51709A7B002ADE
:101D400001D14A469A734A46DA734B46E168013B31
:101D5000CA5C0132CA545B4623616368BFF35F8F7C
:101D60005A461A6085F3108883E7002300229846BC
:101D7000002306920793002300209A46A6E7002935
:101D800001D1002897D10021604600F03BFC43467A
:101D90001A685B680692079343469B689A464346D7
:101DA000DB689846E3684B44013B1B7808931B02B1
:101DB00003432361002089E72369002BB2D0069AF0
:101DC000079B921BBB41002B15DB59460491012157
:101DD00003914946029141460191514620000091EC
:101DE000FFF7B4FEB7E700F0E7F932003B00121846
:101DF0004B41002BE9DA0122034B5242E5E7C04692
:101E0000F4230020FFFFFF0FFFFFFF7F10B5144CEE
:101E10006368002B04D00A211248FFF729FE10BD89
:101E20002300114A1021206800F006FB032000F077
:101E3000B7F9032000F0ACFA03200C4900F0F0F9E8
:101E4000FFF75EFB0A4B9C4603232375D0231B063A
:101E50001B6860446375074B80006060DC60DAE7F4
:101E60003410002030240020E91A0010551C001006
:101E700040000034F4230020004870473410002054
:101E8000F0B557464546DE464E46E0B585B001936F
:101E900010AB1B7800270393002380469A460092DC
:101EA00043465A68EFF3108972B61368002BFCD0D2
:101EB000BFF35F8F43461D68AC7B002C4FD066009C
:101EC0002B683619033E9B195A78AA73002A00D151
:101ED000EA7342469F705F701F7092684A4B944647
:101EE0000099019AE3181B01634419605A600E9A25
:101EF0009A600F9ADA602B689B199F705F701F7051
:101F00006B7B9B46002B46D022001900A8686B68AB
:101F100098472A68002831D05B4658465B005B44EE
:101F20009619033BB070D118D35C002B00D07370AE
:101F30005B460C706B735C452ED04346DB681B1907
:101F4000013B187843465B68BFF35F8F1F6089F3DE
:101F500010885346002B2ED10002204307E05B6817
:101F6000BFF35F8F1C6089F310880120404205B0E9
:101F70003CBC90469946A246AB46F0BD5B465B0032
:101F80005B44033BD3189C709119925D002A00D0EA
:101F90005A705B460B706C734346187D009A019B28
:101FA00000F084F982460028C7D043462100186813
:101FB00000F0CAFBC1E7039B002B23D00E9B00203F
:101FC0000F999847030004000D000B431AD0002915
:101FD0000ADA009A019B121BAB4100920193002B7D
:101FE0000ADB039B9A465BE700F0E6F824184D41B4
:101FF00000940195002DF4DA0123044C5B42009318
:102000000194EEE70020B2E7FFFFFF0FFFFFFF7F25
:1020100070B542680400EFF3108572B61368002BA8
:10202000FCD0BFF35F8F2068CAB2437B93420AD0D3
:10203000FF230B405E00F3180668B4466344033B7D
:102040009B78002B13D0E668FF23B4460B40634413
:10205000013B090A1E78C9B28E420DD00020636888
:10206000BFF35F8F00221A6085F3108870BD22696C
:102070008A42F3D12361F1E7110000F065FBEEE73E
:10208000407D704770B5EFF3058305000C0084B008
:10209000002B0FD0104B0020596A8C4203D89B6A4A
:1020A0000130AB4201D304B070BD641A611E8C4193
:1020B000E0B2F8E7094E02930193094B0200009346
:1020C00030000B00FFF7DCFE011EE3DD20BF300017
:1020D000FFF79EFFDEE7C0460040054034100020B9
:1020E0001D1B0010F0B5EFF30582D6464F4646465D
:1020F0001000C0B51038EFF3108872B6214C236879
:10210000002BFCD0BFF35F8F0123190081401E4DCF
:102110001F006963AA461D4D29601D4D2E78AC46EF
:102120003500C5402F402B4215D05346194D5F6AEC
:1021300083005D59AF4218D3174A8E439B586246BD
:102140001670BFF35F8F0022226088F31088002B87
:1021500006D0984704E0BFF35F8F276088F31088AC
:102160001CBC90469946A246F0BD0C4B92009C4682
:10217000624413681360BFF35F8F0023236088F30A
:102180001088EDE7280100D0004005403C70054074
:10219000692400203C240020141E0020D03F05406C
:1021A00010B50100024A0348FFF72AF910BDC046E6
:1021B000E098001064240020034B596A0A00986AD2
:1021C000596A8A42FAD170470040054070B5040050
:1021D0000D00124A536A1900966A536A8B42FAD16B
:1021E0003000190024184D41AB4211D80ED02B00FD
:1021F0000A494A6A9A42FCD307D1084A02E0516A66
:10220000994202D1916AA142F9D370BDA642EED99A
:10221000012301246442E5175B42E9E700400540E1
:1022200070B504000D00EFF3108672B61A4A1368F9
:10223000002BFCD0BFF35F8F002D1BD02000FFF7D9
:10224000ABF9164981420AD02000FFF7ADF9012110
:102250002000FFF771F90123A340114A1360114BCD
:10226000A400E550BFF35F8F00220B4B1A6086F38A
:10227000108870BD0B4BA200D5500122A2400A4924
:1022800020000B7893430B700449FFF797FA002165
:102290002000FFF751F9E5E7280100D0E520001004
:1022A00038600540141E002069240020F0B54F4618
:1022B000D6464646C0B50700304C616A0D00A66A96
:1022C000616AA942FAD18B4208D805D001201CBC12
:1022D00090469946A246F0BDB242F7D9EFF3108975
:1022E00072B6274801680029FCD0BFF35F8F012533
:1022F0002449BD408C460978204C0E002E43884668
:10230000F1B28A46614650460870391D1E48890060
:1023100065630A51B9000B50216A0020294219D087
:10232000616A0800A66A616A8142FAD18B4219D8B3
:1023300001D1B24216D8C2451DD0104B1F201D62DC
:102340005D6301230740BB40104A1E38136063469B
:1023500042461A70BFF35F8F0022094B1A6089F35F
:102360001088B4E70020BFF35F8F0022044B1A608F
:1023700089F31088ABE70120ECE7C0460040054038
:10238000280100D0692400203C24002080E200E0E5
:1023900010B5EFF3108472B60A490B68002BFCD01D
:1023A000BFF35F8F01238340074A08481362027816
:1023B0009A430270BFF35F8F00230B6084F3108891
:1023C00010BDC046280100D000400540692400200F
:1023D00070B505000E001400002924D0002A24D076
:1023E00080686B689847296800280ED063001B1925
:1023F0007200033B9219CB18033A9E7088188A5CCE
:10240000002A14D1047030000EE073009B196200A2
:10241000033B1219CB18033A9C7088188A5C002A77
:1024200000D05A700670200070BD0800FCE75A709A
:1024300004703000F8E7C04630B583600023CCB2AA
:1024400043730133047342608373C4730D000068E7
:10245000012C06D9421C0133DBB2137003329C42BB
:10246000F9D1FF2129404B005918002340180338A7
:10247000437030BDF8B5CE46474606000C0080B527
:10248000002907D04D0003686D18033D5A1957788D
:10249000002F04D120000CBC90469946F8BD79006D
:1024A000C91903398846434459788946002159702F
:1024B000517073683A00210080689847336800289B
:1024C00014D042469A18947059195B5D002B00D0C5
:1024D00053700F70270049463000FFF7CBFF3900DB
:1024E00002003000FFF774FF0400D3E74246414684
:1024F0005D19AF709A185B5C002B00D06B70147084
:10250000E9E7C046F0B557464546DE464E46E0B5DB
:102510000D006B0001685B19DF1E0400C85D83B00D
:102520000192CA19002850D043001B18033BCB1856
:102530005E78B446002E1AD1019E002E42D0E67B72
:10254000002E04D073009B19CB18033B5D70A37B56
:10255000002B00D1A573E57300282FD10023537001
:1025600003B03CBC90469946A246AB46F0BD720013
:102570006244033A89184A78904600224A7091468C
:102580005A70010032002000FFF722FF43468246C6
:10259000002B07D05B0021684344033BCB185A78DB
:1025A000002A16D1424651462000FFF711FF21684C
:1025B000019BCA19002BC2D10028CFD043001B18A1
:1025C000033BCB1800219970C8E7019B002BB6D1C3
:1025D000C4E75000801803380918487883464846F5
:1025E0004870587041462000FFF7F2FE5946804679
:1025F0002000FFF73FFF414602002000FFF7E8FE02
:102600008046CFE7F0B54E464546DE465746E0B534
:10261000467B040075000068AD19033D83B001914D
:10262000415D4219002952D04B005B18033BC3188F
:102630005F78BC46002F1CD1019D002D44D0E57B66
:10264000002D04D06B005B19C318033B5E70A37BA5
:10265000002B00D1A673E673002931D1002330008E
:102660005370617303B03CBC90469946A246AB469A
:10267000F0BD7A006244033A801842789346002203
:10268000427091465A7020003A00FFF7A1FE5B4667
:102690008046002B07D05B0021685B44033BCB18CE
:1026A0005A78002A17D15A4641462000FFF790FE7B
:1026B000019B010020684219002BC0D10029CDD018
:1026C0004B005B18033BC31800209870C6E7019BC2
:1026D000002BB4D1C2E7500080180338091848789D
:1026E000824648464870587059462000FFF770FEF1
:1026F00053468346002B07D05B0021685344033BBD
:10270000CB185A78002A06D1594652462000FFF7C6
:102710005FFE8346C7E75000801803380918484613
:102720004F784870587051462000FFF751FE39002D
:1027300081462000FFF79EFE494602002000FFF779
:1027400047FE8246E0E7C04670B5040000292CD061
:10275000437B8B422ED00568480040180338281868
:102760008278002A21D053009B18033BEA5CEE18C4
:102770008A4202D11BE0002A08D053009B18033B79
:10278000EB185A788A42F6D142785A700023012217
:10279000837043702000FFF7B5FE617B02002000CC
:1027A000FFF716FE6073012000E0002070BD437843
:1027B0003370EBE701221900FFF7A4FE60730120DC
:1027C000F4E7C046F8B5040006200D0000F0CAF991
:1027D000002845D02B4B2C49E3185A425341802204
:1027E000D20394465B421340284A63441360284A4C
:1027F000136018008A689043FBD1224B8021E318B4
:102800005A425341234A5B0049000620995200F086
:10281000A9F92900C00001F0CDFEC30921D140274C
:102820000122260080256262A36200232C36AD01BE
:1028300035432B60062000F095F93900800001F047
:10284000B9FE6023E26A53406E221A4080235B0186
:1028500033431A60104B236310232B600D3BA3649A
:10286000F8BD0E4A934203D900230D4F0D4AD8E715
:102870007F221040013040089F011A003F180300DA
:10288000CFE7C0460080FCBF00C0004000E0004031
:1028900000F000406C24002001030000FEFF000057
:1028A000C0FF3F00FFFF000030B50C2083B000F0F8
:1028B000B3F9FEF79DFD00280ED0944B944A1A60A0
:1028C0005A609A60DA601A615A619A61DA611A6232
:1028D000904A5A6203B030BD8F4CA06700F0F0F907
:1028E00001228E4B1A60636C012BFCD103228C4BAE
:1028F0001A60894A936B012BFCD101330121894A6B
:1029000089480093043300F033F90523874A009384
:102910000121874800F02CF9864B5A68FF2A02D81B
:10292000802252005A608022784C7D4B216912012E
:10293000804D1A60002905D0606901F03BFE01302E
:102940000138FDD1E0217B4B02201A681140802222
:1029500052012A4311601968484003210140116067
:1029600004219A681142FCD08022802192012A43DE
:1029700009011160802252005A606F4B23616F4B36
:102980005968FF2900D85A6003226C48634B012123
:102990001A60020093681942FCD0E02513681D40BC
:1029A00080235B0103431D6012684A4003211140EC
:1029B00019600221614A93681942FCD0802380216A
:1029C0009B0103430901196080215D4B490051605F
:1029D00063615C4B5A68FF2A00D8596080225A4BC9
:1029E000E1691201574D1A60002905D0606901F0B4
:1029F000E1FD01300138FDD1E02252490B681A4057
:102A000080235B012B431A60802380229B012B4390
:102A100012011A6080223E4B52004A60E3614B4B28
:102A20005968FF2900D85A608022494B216A120157
:102A3000464D1A60002905D0606901F0BBFD0130E8
:102A40000138FDD1E02241490B681A4080235B0127
:102A50002B431A60802380229B012B4312011A60B2
:102A6000802380225B004B60294BD2022362394BCA
:102A70005968914200D25A608022374B616A120134
:102A8000344D1A60002905D0606901F093FD0130D2
:102A90000138FDD1E0222F490B681A4080235B01E9
:102AA0002B431A60802380229B012B4312011A6062
:102AB0008023DB024B60174B6362284B5A68FF2A66
:102AC00002D8802252005A608022254BA16912014F
:102AD000224D1A60002905D0606901F06BFD0130BC
:102AE0000138FDD1E0221D490B681A4080235B01AB
:102AF0002B431A60802380229B012B4312011A6012
:102B000080235B004B600E4BA361E3E63C1F00207B
:102B1000006CDC021BB70000008000403CB00040AD
:102B200030B00040002F685900800240008C86477A
:102B300000C0024030800040001BB7003C800040D5
:102B4000405973075480004054B0004060800040FA
:102B500060B000406C8000406CB000404880004095
:102B600048B00040014B8000C05870473C1F002017
:102B7000F8B504000C2017001D000E0001F01AFD2E
:102B80004101091A8B01591AC90009188901380035
:102B900001F010FD069A2B04120313432268002A49
:102BA00021DB194AA21851424A41802149018C4631
:102BB00052420A40154962440A6015490A601549A3
:102BC00017008D68AF43FBD1C021221D890111433D
:102BD00021222660A0600A602268002AFCDAE360F5
:102BE00008230B60F8BD3F2221680A40B242D8D1C9
:102BF000A2681205120D8242D3D1EE21E268C90209
:102C00000A409A42CDD1EDE70040FDBF00E0004010
:102C100000F0004000C000408023024A9B000343B4
:102C2000D36270470080054010B5140080221B4B12
:102C3000D2051A6000281AD00123194A1843194BEB
:102C4000DA61194A42401A62596298628022134B33
:102C5000D2051A601549164A1160E022D2041A60A2
:102C6000002C07D18022134B12061A6010BD0D4BA9
:102C7000D861EBE780236201121B92001219120146
:102C80005B049A4200D30C4A0C4B1A60054B5A6005
:102C90008022084BD2051A60E8E7C04600B0054024
:102CA000D3C007B0008005402D3FF84FFCFF010066
:102CB0000820014000A00540FFFFFF00E4230020A2
:102CC000AA23064A1B0113602F230549D360054B35
:102CD00019605368002BFCDA7047C0460040024080
:102CE00000B0FA00006002402C4B2D4A70B51A600B
:102CF0002C4A2D4B2D491A6010008B689843FBD14C
:102D00002B4C2C4B9C4209D2013B1D1BAD080135BD
:102D1000AD002D1908CC9847AC42FBD1FFF7C4FD9C
:102D2000254A214B1A60214A9368DB018033FBD18D
:102D30004022224B224C234D9A675A671A67DA6663
:102D4000AC4208D223682000002B21D00834FEF7C3
:102D5000A5FEAC42F6D31C4C1C4DA168C022280035
:102D600002F0E2FAA560FEF7BDFBFEF75BFEFFF79F
:102D70004DF8174C174B9C4209D2013B1D1BAD0867
:102D80000135AD002D1908CC9847A542FBD170BD87
:102D90000834FEF775FEAC42D4D3DCE700E0004017
:102DA000BFCDFBFEFE7F3C0000F0004000C00040B5
:102DB0002019002030190020FFFFFF0100F0014022
:102DC000181900202019002000ED00E0000000206C
:102DD000301900203819002000BEFDE7094A030021
:102DE0001068002805D00849C3188B4207D8136023
:102DF000704706480449C31810608B42F7D9012078
:102E00004042F5E7DC1F00200000042034270020AA
:102E100010B5FFF7E1FFC0460FB400B5084883B016
:102E200002F0DAFB049B002B07D005A918000191E2
:102E300001F04AFB034802F0CFFB0120FFF7CCFF73
:102E4000049900101495001010B50148FFF7E4FF35
:102E5000149900109A4200D2885470477047C046B7
:102E6000F8B557464E46DE464546E0B51F000A9B7C
:102E700005009B460D9B0E00914692469B0718D17C
:102E80000B9B0C9A934214D213000B9AB8469B1AD0
:102E90004B444C460F0006001D00220043460134FF
:102EA00039002020B047AC42F7D1AA4635003E0099
:102EB00047460B9B002B38D09A441C00D046534603
:102EC0001A1B5B46013C185D31003B00A847002CF3
:102ED000F5D10D9B9B0721D543464A469C1A0C9B76
:102EE000A3421BD93A009A464F469146E2194B46F7
:102EF000310020200134A8475445F7D343460C99AC
:102F0000DB1B0133B9460022994203D343464A1ED4
:102F10004A44D21A434690460133984440463CBC4A
:102F200090469946A246AB46F8BDD046D1E7C0468A
:102F3000F0B54F464646D646C0B584B098460EAB6F
:102F40001B78129F994694460D9C109B119EBA07C0
:102F500025D4002E69D19C4200D3C2E001223A4020
:102F600092461F2C00D9BBE00C9A551E302201E07E
:102F7000202C03D001342A55A342F9D85246002A06
:102F80000DD0B4420BD21F2C62D80C9A551E3022A1
:102F900001E0202C5CD001342A55B442F9D1FA0664
:102FA00035D57A055DD4002C57D10F9B102B00D15D
:102FB0007CE00F9B022B00D18DE030230C9A012482
:102FC00013704B46002B27D02D230C9A1355013438
:102FD0000C9B624600930397434602960194FFF7C9
:102FE0003FFF04B01CBC90469946A246F0BDBB060C
:102FF00063D4202CECD00C9B1A1901347823137065
:10300000202CE5D030220C9B1B191A700134202C87
:10301000DED04B46002BD7D17B0735D43B07D7D525
:1030200020230C9A13550134D2E7012215003D40AC
:10303000AA463A4220D04A46002A2AD10C323A42C5
:1030400027D19C429DD21F2C00D88DE7202E19D964
:103050002024FA06BCD57A0503D4A3421BD0A6428D
:1030600019D00F9B102BC2D0022BC9D1202CAFD06E
:103070000C9B1B19013440E09C4200D38FE71F2CAE
:1030800000D871E720248AE72B230C9A13550134CA
:103090009EE7013ED5E7631E012C00D185E70F9A1C
:1030A000102A20D0022A25D01C00ABE7BB060DD485
:1030B00078230C9A01241370A4E7202C00D187E711
:1030C00058220C9B1B191A70013499E758230C9A4B
:1030D0000124137096E70C9A60330124137091E772
:1030E000202400265BE7023CBA06E9D40C9A1219A8
:1030F0001C0083E70C9A9246534462221A707FE7C1
:1031000010B5002800D110BD02F01AFAFBE7C04646
:103110000B0010B5002802D049681B68984710BD05
:10312000F0B5DE46574645464E46E0B59BB09B4659
:10313000249B0A909846259B0B910C924046424650
:1031400019009A4601F0FFFC002800D0E8E00122B7
:10315000404651467F4B524201F0F0FC002800D01F
:10316000DEE00122404651467B4B524201F0D0FC4A
:10317000002800D0D4E0002200234046514601F050
:10318000C7FC002800D0CAE15346C14609938023FA
:10319000289ADB001A400E92289A1A4201D106237F
:1031A00026934C46099B234300D0D9E0289B002658
:1031B00000271B0500D4AEE100230D93269B1900C8
:1031C0000D9B994200DCB0E1C81A431E2693802370
:1031D000289ADB001A430023002528920D93279B91
:1031E0000024AB4200D95C1B0223289A1A400E929D
:1031F000289A134203D06B426B415B421C400D9BEB
:10320000002B07D04846099932003B0001F01FFC13
:1032100081460991002200234046514601F078FC86
:10322000002805D080200006844609996144099150
:10323000289A4A4B0A9E13404A460493269B0B99B0
:103240000293099B03940092019330005B460C9A11
:10325000884600F0A1F90400002D72D0289B2200BE
:1032600098061F23C017984341465B466530B04718
:103270000D9B671CDA179C18DB0F98466B1E99464E
:103280000025544001E0202D13D00AAA94461F23A4
:10329000200063440A2101355E1901F08BF93031B9
:1032A000317020000A2101F085F926000400092E62
:1032B000E9D8052306934B460593002304930A336C
:1032C000039343463A000A9E0B9F029312AB00936E
:1032D00039005B4630000195FFF72AFE0E9B040083
:1032E000002B2ED00C9B279AC51AAA4229D93C0044
:1032F000814698461700434621005A1920205B4614
:103300000135B047AF42F6D84C460C992798631A5E
:1033100001330022984200D30AE10134141910E06D
:10332000289B42460493279B0B990393269B0A985C
:1033300002935346009201935B460C9A00F02CF9DD
:10334000040020001BB03CBC90469946A246AB4608
:10335000F0BDC046FFFFEF7FFFFFEFFFFFF7FFFF6E
:10336000764B099D9C466800400D604401F0FEFBD1
:10337000734A744B01F089FB734A744B01F05EFB96
:103380002B03734A1B0B1A4306000F00714B1100ED
:1033900048460022099501F048FB6F4A6F4B01F047
:1033A00074FB02000B003000390001F047FB01F014
:1033B000F5FB0D9001F0DAFB694A6A4B04000D0041
:1033C00001F063FB0022684B01F038FB01F0E6FBE3
:1033D000664A0600664B2000290001F056FB0400F7
:1033E00030000D000F9601F0C1FB624A624B01F004
:1033F0004CFB02000B002000290001F016FB02002C
:103400000B0006000F0001F040FB320004000D002D
:103410003B003000390001F011FB002210901191A7
:10342000564B2000290001F012FB0022544B01F002
:1034300005FB02000B002000290001F008FB002220
:10344000504B01F0FBFA02000B002000290001F0B4
:10345000FEFA0D00802132003B000400C905002067
:1034600001F0E3FA02000B002000290001F0E6FA67
:1034700002000B001098119901F0E9FA0022344B78
:1034800001F0DCFA404A0F9B9446634400221B057E
:1034900001F0FBFA06000F0002000B0048460999F4
:1034A00001F036FB00280AD00D9B3000013B3900AB
:1034B0000D930022324B01F0CAFA06000F00C62518
:1034C0000D99330063318D42AD4128996D42043529
:1034D000090500D483E63B4300D16FE6099C4846CA
:1034E00021002A4A2A4B01F021FB002808D00022A3
:1034F00048462100274B01F00BFB002800D05DE679
:10350000269B002B00D16AE60E9B5A1E9341269AF9
:10351000D31A269363E6002304250D935FE68023E8
:103520001B065344C146099331E6002326934EE619
:103530000A008446013A6244121BEEE601FCFFFFDA
:10354000FB799F501344D33FB3C8608B288AC63F92
:103550000000F03F0000F83F61436F63A787D23F50
:1035600071A379094F930A400000E03F1655B5BB9F
:10357000B16B0240EF39FAFE422EE63F00002C40CC
:103580000000244000001840FF0300002D431CEB06
:10359000E2361A3F80842E41F0B54E46DE4657464D
:1035A0004546E0B597B09946209E219F229B8346D1
:1035B000984607910C923B0032003000390001F030
:1035C000C2FA002800D0C1E1012230003900CA4B04
:1035D000524201F09DFA002800D0E0E001223000C4
:1035E0003900C64B524201F0A9FA002800D0B6E0DB
:1035F000002230003900C24B01F0A0FA002800D0B0
:1036000098E0002230003900BE4B01F081FA00281A
:1036100000D08FE0002200233000390001F078FA5A
:10362000002800D0B0E000230D93249B5B0501D45B
:103630000623984608AB9C461722002430234146B7
:10364000624404E0013413550139202C01D00929CA
:10365000F8D888463000390001F0A0FA4346DA0075
:10366000A94B05009B181A685B680892099301F042
:103670007DFA02000B003000390001F0D6F9089AFB
:10368000099B01F002FA0A900B9101F0ABFA824615
:1036900001F068FA02000B000A980B9901F0C5F9D5
:1036A00000229A4B0A900B9101F048FA002800D1B1
:1036B000C0E001239C46E244504601F053FA020068
:1036C0000B000898099901F029FA002802D000237C
:1036D0009A4601354346002B69D008AB17269C4615
:1036E00008956644554614E001235B4243440A2191
:1036F00028009A4600F05EFF0134303137193970E6
:1037000028000A2100F056FF092D00D8D5E0D04648
:103710000500202CE8D10323249A1340012B00D16B
:1037200000E10EAB9846249B01940393239B0293E4
:1037300043461EE0249B58460493239B0096019722
:10374000039343460C9A029307994B46FFF7E8FC14
:1037500017B03CBC90469946A246AB46F0BD249BB0
:103760005B070ED403226A4B24990192039123999B
:103770000291009358464B460C9A0799FFF770FB4D
:10378000E6E70422634BEFE73B0032000020002114
:1037900001F04BF9012306000F000D9345E7249B30
:1037A0000393239B0293042301935B4BE1E72800DF
:1037B00001F0DCF902000B003000390001F035F9AE
:1037C000524B002206000F0001F0A2F90EAB984602
:1037D00000280AD10022300039004C4B01F0AEF92C
:1037E000002802D1EB0700D50135202C32D008AAE1
:1037F00094461723280063440A2101341E1900F05F
:10380000B1FE3031280031700A2100F0ABFE051EF8
:10381000EBD10323249A1340012B00D191E01F2CFC
:1038200000D980E70D9B002B3BD02D23424613553A
:10383000013478E700220A980B99344B01F068F9BB
:10384000002800D046E75346002B67D101239C4651
:10385000E2443FE70323249A1340012B00D062E7A0
:10386000239B002B00D15EE70D9B002B03D1249AF4
:103870000C33134202D0239B013B2393239B9C4296
:10388000CDD208AB9C461722302362441F2C06D8A9
:103890002399013413558C42C1D0202CF8D1202417
:1038A00041E7249B5B0721D4249B1B0700D43AE704
:1038B000202342461355013435E75746089D202CF6
:1038C00037D0220030214046002F08D00132B154B9
:1038D000202A43D0D3431B191B18002BF6D10EAB63
:1038E00098462E234146541C8B547EE72B23424698
:1038F0001355013417E7C046FFFFEFFFFFFFEF7FCF
:1039000065CDCD4165CDCDC1189B00100000E03FD5
:10391000209900102499001030990010DB0700D482
:10392000D8E693E7239B002B00D1FAE60EAB98462E
:103930009AE70323249A1340012B00D0F1E60EAB43
:103940009846239B002B00D169E78DE7249B0393C6
:10395000239B029303230193064B0AE70323249A34
:1039600020241340012B00D0DBE6239B2024002BD6
:10397000DCD1D6E62C990010F0B5DE464E4657460F
:103980004546E0B59FB01C00289B93460993CF4A5B
:10399000CF4B894608901A60002900D116E2002317
:1039A00020789A46002800D118E226001D004C46D7
:1039B0000AE02A006F1C5B46089D2100A8473D00D5
:1039C0000136307800287AD02528F2D110239A4683
:1039D000083B9946043B9846023B00219C46721CDA
:1039E000107816000300203BDBB2102B03D8B94F30
:1039F0009B00FB589F460300303B092B3CD900231A
:103A00000A932A2800D171E0002398462E2847D037
:103A10000300683BDBB2122B1FD8AF4A9B00D35880
:103A20009F46012301321943DAE763460132194305
:103A3000D6E7434601321943D2E7534601321943D0
:103A4000CEE74B4601321943CAE770786C2800D1A3
:103A5000BFE280235B00194301360300253BDBB244
:103A6000532BA6D89D4A9B00D3589F4680235B00CA
:103A7000707819430136F0E700270300B800C01939
:103A800001364000C018337830381A00303A070049
:103A9000092AF3D90A901800002398462E28B7D196
:103AA00080237078DB0019430300303B721C092B24
:103AB00000D895E12A2800D1A6E11600A8E7A14682
:103AC000AA462C00D34503D801235B425B449A46A7
:103AD0005B46524649460020089DA84720001FB07B
:103AE0003CBC90469946A246AB46F0BD099B40CBF4
:103AF0000A96002E03DB50780993561C84E7283879
:103B0000014370420A9009935078561C7CE778284C
:103B100000D1D4E1582800D168E26F2800D152E3E7
:103B2000622800D1D8E110230A009A430B92692839
:103B300001D000F0A2FC0A230C934B0500D4D5E180
:103B400001230B9A9A430B92692800D1CEE1642895
:103B500000D1CBE10B9A802311009B0019408A46CB
:103B60001A4200D032E3802311005B0019408946DD
:103B70001A4201D000F002FC13005B0600D510E3EE
:103B80000B9B1B0601D400F06EFC099B04CB1204B6
:103B9000120C924609935346002B00D064E30B9A13
:103BA0001033110099430B91520500D45CE30023BC
:103BB00099460B9B06930A9B0593434604930C9BE3
:103BC00003930023DEE27078682800D107E28023A7
:103BD0000136194341E780239B0070781943013671
:103BE0003BE7462800D174E10722099B0491073383
:103BF00093430A9A19000392424602920CC908980C
:103C00000092019309912A005B462100FFF7C4FC52
:103C100001360500D5E6099B1A0008CA9146002B1B
:103C200000D105E1212211438A460EA884461F21B6
:103C30006144099500220F27A4460D0002E0202AC6
:103C40000CD00B003C001C4020003730092C00D861
:103C500007380132A85419090F2BF0D86446099D82
:103C6000F0E08B0700D4D1E1099B2A0099466B1C38
:103C700098464B4601CB21009946089F5B46C0B24F
:103C8000B8470A9B9C466544012B00D890E2B24697
:103C90005E464746A846089D3A003300013721009A
:103CA0002020A8474745F7D1B3464B4656463D002E
:103CB0000993013685E62A006F1C5B46089D2100AA
:103CC0002520A84701363D007BE6C0467939001023
:103CD000E0230020389900107C990010C89900104A
:103CE000099B04CB994643460992002B00D097E0EC
:103CF00013789C46002B00D1B3E302235B425A1C8D
:103D0000099B924618000A9F0B92504402E083429E
:103D100000D169E15A780133002AF8D1099A0A974B
:103D20009B1A0B9380230A00DB001A400C92194265
:103D300004D00B9B434501D943460B9302231A0041
:103D40000A400D920B4200D184E16046002823D046
:103D50000C9B002B00D124E1A844C246099B574686
:103D60005B1B9846089BB2462A0026005C469B4691
:103D700009E023003100551CD8474346585D002810
:103D800000D13FE12A009742F3D1A3463D00340021
:103D900056460D9B002B69D00B9B0A99A846994269
:103DA00064D98C466544ED1A089B47469A46B0464E
:103DB00026005C463A002300013731002020D0471E
:103DC000AF42F7D1A346340046464FE0D24B2078AD
:103DD000089300239A46002800D0E6E5002471E607
:103DE000434606000A9F9800C0180132400080191F
:103DF0001678030030003038303B0928F3D9300002
:103E0000984616000A9703E6099B023604CB9046B3
:103E1000D2434046D2171040804609933078F7E5E8
:103E200013789C46002B00D11AE34346013B66E71A
:103E300010220800904311321043824600224905A7
:103E400000D4F2E6534606930823059343460493B1
:103E5000102303930023029316AB019200932A00D0
:103E60005B4621000898FFF763F805004B460136D2
:103E70000993A6E5202302009A43472A04D1802310
:103E80001B01194302239843452801D120231943DC
:103E90000722099B0491073393430A9A190003925E
:103EA000424602920CC908980092019309912A0097
:103EB0005B462100FFF734F90136050081E5102348
:103EC0000C930C230A009A430B924B0500D43BE65B
:103ED00036E62023194387E602230C930B910B99B6
:103EE0006428EED10B9B5B0500D529E60B9A802355
:103EF00011009B0019408A461A4200D0CEE0802370
:103F000011005B00194089461A4200D0DBE1130022
:103F10005B0600D51DE10B9B09991B0600D499E2B5
:103F200008C91BB2D8171A18424092B2099192469A
:103F3000DA0F1292002B09D1802310220B99DB009B
:103F40000B4091430B91002B00D012E10B9A61239F
:103F5000920600D541230EA91F228C46DBB2624493
:103F60000A3B57461395A2464D460C9CB1460D930D
:103F700016000AE03033DBB201357355A74200D298
:103F80001CE1202D00D119E107002100380000F0CC
:103F900011FBCBB20929EDD90D9A94466344DBB2EB
:103FA000EAE7099B5F465B1B98460A9BB3469A4625
:103FB0002600089C2A003B003100A04743460135FB
:103FC000585D0028F6D1534634000A935E46BB463E
:103FD000DFE6C0239B00B078194302363DE5C023DD
:103FE000B0781943023638E50A979BE60C230A009D
:103FF0009A4314331A4310230B920C934B0500D4AD
:10400000A8E59DE5A34634005646C2E60A9A012A71
:1040100000D82EE26B1E9F18089BB04699462600DA
:104020005C462A002300013531002020C847BD42EC
:10403000F7D1A34634004646099B3A0001CB210044
:1040400098467D1C5B46089FC0B2B8474346013680
:104050000993B6E40B9A0A98531C904200D80AE2DE
:1040600043199B1A1F00089BB24626005C469B46DC
:104070002A002300013531002020D847BD42F7D166
:104080000A9BA34601330B93099B34001B785646C9
:104090009C466046002800D05AE6E7E60722099BC6
:1040A00007339343013294469C4462465F68099209
:1040B0001A68FB171093119310981199030053403D
:1040C0000E930B007B400F9394460E9A0F9B121A8F
:1040D0008B410E920F93FB0F6246129300233A43DB
:1040E0009A463DD00B9A6123920600D541230022C7
:1040F000DBB20EA90A3B8C4691460D9343461F3214
:104100006244139515964D460E9E0F9FA14690460C
:104110000C9C14930FE0C0465D2E00103032D2B2DA
:10412000434601355A55BA4500D17CE1202D00D1D6
:104130007CE106000F00220000233000390000F06F
:1041400077FAD2B2092AE9D90D9B9C466244D2B2D1
:10415000E6E7FF23099904C913401A000991E6E62E
:104160000B9A1033110099430B915205BAD50023D5
:1041700099460B9B06930A9B0593434604930C9B1D
:104180000393129B02934B46019316AB2A000093B4
:1041900021005B460898FEF7CBFE01360500FFF7CD
:1041A00010FCFF22099B02CB11408A460993F2E4DE
:1041B0004B46454609930136FFF703FC4E465446ED
:1041C000A946139DD5E708230C9387E60722099B90
:1041D00007339343013294469C44624609921A681D
:1041E0005B6810009A4613005246134307D10B9A9E
:1041F0001033110099430B91520500D5D7E40B9A67
:104200006123920600D541230022DBB20EA90A3BAE
:104210008C4691460D9343461F3262445746129591
:10422000A2464D460400B14690460C9E13930DE005
:104230003032D2B2434601355A550023BB4200D139
:10424000FDE0202D00D1FDE004000F00320000232E
:104250002000390000F0ECF9D2B2092AE8D90D9B10
:104260009C466244D2B2E5E70B9A6123920600D5E0
:104270004123DBB20EA90A3B1F228C460D9323007B
:1042800062445446129517004D469A46B1460C9E1C
:1042900008E03033DBB201357B55B4420ED3202D1C
:1042A0000CD004003100200000F084F9CBB20929C1
:1042B000EFD90D9A94466344DBB2ECE74E46544680
:1042C000A946129D75E4099B1A0008CAD9171392D2
:1042D0005A184A409146DA0F1292002B08D18023D7
:1042E00010220B99DB000B4091430B91002B2BD13B
:1042F0000B9A6123920600D541230EAA1F279446EC
:10430000DBB20A3B0D95674455460993A2464C46DD
:10431000B1460C9E08E03033DBB201357B55B44228
:104320000ED3202D0CD004003100200000F042F903
:10433000CBB20929EFD9099A94466344DBB2ECE782
:104340004E465446AA460D9D0B9B2A0006930A9B97
:1043500021000593434604930C9B08980393129BFA
:10436000013602935346019316AB00935B46FEF76A
:10437000DFFD139B05000993FFF723FB099B04CB8B
:1043800091461293002A08D1802310220B99DB005A
:104390000B4091430B91002B2BD10B9A612392067A
:1043A00000D541230EAA1F279446DBB20A3B0D9588
:1043B000674455460993A2464C46B1460C9E08E018
:1043C0003033DBB201357B55B4420ED3202D0CD0F7
:1043D00004003100200000F0EDF8CBB20929EFD93C
:1043E000099A94466344DBB2ECE74E465446AA462B
:1043F0000D9D0B9B2A0006930A9B210005934346C3
:1044000004930C9B08980393002302935346019353
:1044100016AB00935B46FEF78BFD129B05000993DC
:104420000136FFF7CEFAB44200D87FE6149B4C4623
:104430000E960F97A9469846159E139D99E6A6429B
:1044400000D8FEE6139B4E469846A9465446129D58
:10445000FFF7AFFB08C9D8171A184240099166E563
:1044600000230B935EE4099B04CB92460993FFF76C
:1044700092FB2F00E0E50B930BE6063B0C932EE539
:104480000EB4012210B585B007AC08CC0100009431
:10449000524204480394FFF76FFA05B010BC08BC01
:1044A00003B01847552E001000B585B003910121C7
:1044B00002900093034813004A4202A9FFF75CFAF6
:1044C00005B000BD1131001010B5094A0300146891
:1044D00084B0002C08D0012200910648524203A962
:1044E000A047012004B010BD01F076F80020F9E7E4
:1044F000E02300200131001001480421014B18473E
:104500006010002029450010142310B50100188800
:1045100004331B88984710BD162310B50100188876
:1045200002331B88984710BDF0B5C64600B5002978
:1045300016D0142304000125984618278900461830
:104540004346216818883B88984701C4431E984118
:1045500040420540A642F3D1280004BC9046F0BD7D
:104560000125F9E7124A936F9B0815D29066D16630
:10457000002905D0FFE7FFE7FFE7516F106F704795
:1045800004B580210906C2175140002800D0C84355
:1045900004F012FF002104BDF0B5146E556E576F84
:1045A000166FFFF7E3FF1466556657671667F0BD91
:1045B000000000D0114A936F9B0813D21066516619
:1045C000002905D0FFE7FFE7FFE7516F106F704745
:1045D00004B5002801D00020C04304F0EDFE002106
:1045E00004BDC046F0B5146E556E576F166FFFF7D9
:1045F000E5FF1466556657671667F0BD000000D0EA
:1046000094464A4A926F9208624601D228E0C04618
:10461000F0B5464E346E756E776F366F00F020F849
:104620009446424A14665566576716676246F0BD5F
:1046300094463E4A926F9208624601D254E0C046C8
:10464000F0B53A4E346E756E776F366F00F04CF8F9
:104650009446364A14665566576716676246F0BD3B
:10466000002B24DB11D000293EDA00B5C9434042BB
:1046700000D1013100F038F8C943404200D1013186
:10468000DB43524200D1013300BD002AEBD10028A8
:1046900001D1002905D00020C90FC90701D1C043AD
:1046A000410800B504F070FE0022002300BD00B5F3
:1046B00000290ADBDB43524200D1013300F014F839
:1046C000C943404200D1013100BDC943404200D13D
:1046D0000131DB43524200D1013300F005F8DB43E6
:1046E000524200D1013300BD002923D1002B18D143
:1046F000002A0CD0BC460D4F38667A660021002394
:10470000FFE7FFE7FFE77A6F386F674670470028DB
:1047100001D00748010000B504F036FE0022002356
:1047200000BD02000B00002000217047000000D0F7
:10473000FFFFFFFF002B00D0BFE0130C28D1002AA1
:10474000E7D080B4114F39667A66FFE7FFE730B4EF
:10475000040C7B6F396F1B0423433B667A66FFE7CB
:10476000FFE7FFE7C04684B27B6F3D6F1B04234326
:104770003B667A66FFE7FFE7C04600232C042D0C5A
:104780007A6F386F00196941B0BC7047000000D0E3
:10479000F0B594460025140E01D112020835140F0D
:1047A00001D112010435940F01D192000235D40FCA
:1047B00001D152000135D40B0134254F7C66254CC4
:1047C0003C660E0C93B2FFE7FFE7FFE73C6F6643E2
:1047D000360C7703BE467343DF0B5B04C01AB94146
:1047E000130C7343DB18C91ACE086643360CB64463
:1047F00093B273431F0F1B01C01AB941130C7343CB
:104800001F0B1B05C01AB941860D8F023E4366433C
:10481000360C092D24DB520A7243801A7703460AAC
:104820006643360C16235B1BDE40DF40BF1964462F
:104830006643821B7046043506330100D940A84008
:10484000C01900D30131A24206D20023F0BD0000FE
:10485000000000D0FFFFFFFF121B0130F3D3F1E790
:1048600009277F1BFE406446A2B27243801A00D221
:104870000139220C7243130C1204821A99410B0065
:104880007046043513370100F940A840801900D361
:104890000131002B02D1A2420AD2F0BD013000D377
:1048A0000131121BFAD2013BF8D1A24200D2F0BD75
:1048B000013000D30131121BF7E7F0B51C0C00D01A
:1048C00080E00CB400251C0A04D11B02160E3343F1
:1048D000120208351C0B04D11B01160F33431201C1
:1048E00004359C0B04D19B00960F33439200023594
:1048F000DC0B02D192185B4101351C009718644112
:104900000134464F7C66464C3C660E0CFFE7FFE7E1
:10491000FFE7C0463C6F6643360C7703BE4697B24E
:104920007743C01B00D20139C01B00D201399FB2AE
:104930007743C91BC91B170C77437E04FF0B801BF1
:10494000B941CE086643360C0C2D33DBB644120B4E
:104950001F053A431B0B97B27743C01B00D20139A6
:104960009FB27743C91B170C77433E043F0C801B53
:10497000B941860D8F023E43664329277F1BFE40C7
:104980000C3D7746AF40BF1930BCA2B2ABB2724308
:104990007343801A9941220C7243130C1204801A3B
:1049A000994102000B000137001BA941F9D2781E82
:1049B0000021F0BD0C277F1BFE4077467F0BAF40E8
:1049C000FF19E0E700245D1C07D0144F7D663966AF
:1049D000FFE7FFE7FFE7FFE73C6F95B29EB2654355
:1049E0006643401BB141150C1E0C654366433604FB
:1049F0002F0C3E432D04401BB141994204D20200CA
:104A00000B0020000021F0BD01D19042F7D3801AA5
:104A1000994101349942F2D3F6E70000000000D03A
:104A2000FFFFFFFF48404140484018B41B4B5B6804
:104A3000FC46019308BD04DFEF4C001018B4174B7F
:104A40001B68FC46019308BD00DFF94C001094463A
:104A5000134A926F920809D2624618B40F4BDB6872
:104A6000FC46019308BD0CDFB14F00100C4AF0B5B5
:104A7000146E556E576F166F6246FFF7EEFF084AC9
:104A80001466556657671667F0BD18B4034B9B68EC
:104A9000FC46019308BD08DF554E0010702400202D
:104AA000000000D0FFB550404240504059404B40BC
:104AB000594000E0FFB5154F4C00640D03D0BC42D7
:104AC00004D10C0314D80020090D09055C00640D05
:104AD00003D0BC4204D11C030AD800221B0D1B05C5
:104AE00001264B4009D44B4003D58B4200D1824272
:104AF000FFBD9942FCD19042FFBD0B43DB1803433D
:104B00001343F5D0C9434918FFBD0000FF0700005B
:104B100000B5FFF7CFFF804100BDC04600B5FFF7ED
:104B2000C9FF01D9002000BD012000BD00B5FFF77D
:104B3000B9FF01D9002000BD012000BD00B5FFF77D
:104B4000B1FF804100BD012040054A00121804D881
:104B50005A00121801D80020704701207047002029
:104B6000704700000021002805D17047C117484058
:104B7000401AFAD0C90713B5064B1B6898470CBCFE
:104B8000441CA2401005120B0349091B09051943D7
:104B9000114310BD2C2400201F04000010B54C0050
:104BA000620D8023D218DB00D21A5B057E2A10DD4D
:104BB0009E3A13DACC170903490819435242D140EF
:104BC000640001341532202A05DAD04008436043DE
:104BD00010BD002010BD0846604310BDC80FC018AE
:104BE000013810BD18B4044B5B6AFC46019308BD44
:104BF00024DF61510010000070240020132370B5E1
:104C00001D78012D15D010DD2748FFF785FC274CB6
:104C100001008022200000F087FB022D06D02448EE
:104C2000FFF772FC234B186070BD204C224AA2642F
:104C3000F5E72E001D4C204AA3085B421E401D4292
:104C40002FD0330022602020B1006118801B0A6041
:104C50004A608A60CA600A614A618A61CA610A62FE
:104C60004A628A62CA620A634A638A63CA630A64DE
:104C70004A648A64CA640A654A658A65CA650A66BE
:104C80004A668A66CA660A674A674008102803D1DE
:104C90008A67CA67A264C2E71E339B00E250A2641F
:104CA000BDE70023CFE7C046534400007024002036
:104CB0004C3300002C240020BD4C001007B560468A
:104CC00001880A0A0230DF2AFAD1C9B2820804D365
:104CD000028840880004104300E00068014A5050F8
:104CE000039007BD702400200FB403BC0CBCF0B5CA
:104CF0000124E407634000E0F0B50C0DCF0F661E01
:104D00003605891B640503D3C943404200D30131F2
:104D1000640D03D0661CF60A07D0E41B00207F0058
:104D2000791C89078912803C24031D0DDF0F6E1E3C
:104D300036059B1B6D0503D3DB43524200D3013381
:104D40006D0D03D06E1CF60A07D0ED1B00227F000C
:104D50007B1C9B079B12803D2D032F1B661B58D489
:104D6000A446202E46DA20371400BC401D00BD406A
:104D7000F24033412A4380185941CB0F05D0C94333
:104D8000C043002264425041514162464D0D28D13A
:104D90000D0D07D100281FD0241940414941013A87
:104DA0000D0DF9D0640006D3013000D30131002C81
:104DB00001D140084000013A0BD4941CE40A04D10C
:104DC00012051144DB071944F0BDD907204B1943E4
:104DD00000E0D9070020F0BD0029DDD1002CDBD197
:104DE000F0BD0132C6074008CD0728434908002E10
:104DF000E1D0D9E73C2E29DA203E40371400BC40F0
:104E000000D00124F24014431A00BB401C43D317C6
:104E1000ACE7AC46202F08DA20360400B4400D0081
:104E2000B540F84039412843A5E73C2F0CDA203F34
:104E300040360400B44000D00124F8400443080088
:104E4000B1400C43C117EAE710001900002494E7B1
:104E50000000F07FF0B50C0D661E3605891BE60AD2
:104E60006405640D02D0651CED0A04D00020012108
:104E70000905803C2403A4461C0D671E3F05DB1B6F
:104E8000E70A6405640D02D0651CED0A04D0002217
:104E900001231B05803C24037740644497B484B20B
:104EA00096B27443070C7E43150C6F4380B268437F
:104EB000361802D3012000043F183004350C0019C5
:104EC0007D41844688B29AB250430C0C62431F0C59
:104ED0007C438EB27E43921902D301263604A41974
:104EE0001604170C3618674101BC81B29AB25143BF
:104EF000040C62431B0C5C4380B25843121802D36B
:104F00000120000424181004130C401863412D18CC
:104F10005E410020474106BC88B293B258430C0C56
:104F20006343120C544389B251435B1802D30121ED
:104F30000904641819041A0C091862416D185641C5
:104F40000020474118BCF902720D1143F0026A0DAE
:104F50001043ED020A0D03D16D1940414941013B57
:104F6000124E9B1B7600B3420ED26D0007D3013068
:104F7000002671416646354301D1400840001B05BB
:104F8000C918E4072144F0BD0BDA013306D1013022
:104F900004D101314F0D01D04908F2E7E1070020AB
:104FA000F0BD013631050020EBE70000FF030000F3
:104FB000F0B51C0D671E3F05DB1BE70A6405640D99
:104FC00002D0661CF60A04D0002201231B05803C97
:104FD0002403D0252D060026F6432E661E096E6694
:104FE000CE0FF619B44649004F0D02D07E1CF60ACA
:104FF00003D000200021403F3F033E1BB600B444D5
:10500000013F7F05C91B49082E6F013676089C02B7
:10501000950D25437543ED137543AD1301356D10A3
:10502000F603761B0CB4CC02450D2C43A2B2B3B2EE
:105030005A43270C7B43350C6F43A4B26C431B19B6
:1050400002D3012424043F191C041D0CA4187D4123
:1050500024196D41009A91B2ACB26143170C7C43A4
:105060002B0C5F4392B25A43A41802D301221204BC
:10507000BF182204230C52187B41019C6C431B195E
:10508000520ED9010A434401A01A81B2B2B251436F
:1050900003145A43360C734387B27743D617D21999
:1050A00000277E4136049B191704160C7F185E41B9
:1050B0007316ED18F301002680337541A90F06D150
:1050C0006400690AE8055B0A184309D22FE004224C
:1050D000944480337541A90AA8059B0A184326D336
:1050E000404149412404009A019B0D005543641B33
:1050F0004343E41A95B286B27543170C7E43030C02
:105100005F4392B25A43B61802D301221204BF1869
:105110003204330C52197B4152429C41002C02D480
:105120000022013051414008CA071043490802B02B
:105130006246D7079210084BD218084B9A4203D206
:1051400012058918C919F0BD0020002A01DC3900B8
:10515000F0BD01331905F5E7FD030000FE0700006F
:10516000002200B5203200F004F8080000BD000065
:1051700000220B150AD410B5944600F031F814142F
:10518000013400DA0021CB17144C20470020002105
:1051900070476244343A0CD40C2A07DA0400914078
:1051A000904052422032D440214310BDD843D943CD
:1051B00010BD203207D40C46944052422032114197
:1051C000D040204310BD0800C917203203D45242FA
:1051D0002032104110BD1800190010BD935100106D
:1051E0000A0DCC0F531E1B05C91A520503D3C94320
:1051F000404200D30131520D03D0531CDB0A07D0CB
:10520000121B00206400611C89078912803A120376
:10521000014BD21A70470000FF0300005143434383
:10522000C9188C46110C83B24B4310B4040C614373
:1052300092B280B2504362431C041B0C001910BC94
:1052400059411304120CC0185141614470470000C9
:10525000132310B512481C78FFF75EF90100012CEA
:105260000AD003DD80220F4800F05EF80E48FFF7F9
:105270004BF90E4B186010BD0A4C5422200000F070
:1052800053F80B4B6365A365E36523666366A3660A
:10529000E36623676367A367E3672362E361E5E788
:1052A00053460000702500204C3300002C240020C1
:1052B000B552001007B5604601880A0A0230DF2A9D
:1052C000FAD1C9B2820804D302884088000410438E
:1052D00000E00068014A5050039007BD702500208F
:1052E00010B50C0003F008FC002804D0034B04198F
:1052F0009C4200D810BD0248FDF78EFD000004203E
:10530000689B001010B503F023F910BD014804217B
:10531000014B18477010002029450010014B1B68F5
:105320001847000070100020014B5B681847000010
:1053300070100020030010B508001B68110098478A
:1053400010BDC046F8B54746CE4680B5437D070040
:105350000D001600002B37D000240020002A1EDD8F
:105360004B1E98461B4B9946002C2BD043461B5D89
:105370000D3B5A425341DBB22A5D0A2A13D0013455
:10538000A642F1DC864203DD311A3B6828189847B3
:10539000AD19013D2B780D3B5A4253413B750CBC76
:1053A00090469946F8BD002BE9D1A04203DA211AB4
:1053B0003B6828189847484602213B6801349847C3
:1053C0002000DDE73B7DD7E7036811002800984700
:1053D000E5E7C046DC9B0010F0B5C6460C00096846
:1053E000060000B5802906D04B1C23606418267186
:1053F00004BC9046F0BD0F4B1D68002D16D0231D38
:1054000098460D4F02E02D69002D0FD02B68002B20
:10541000F9D03B68002B01D0AB42F4D128004146C3
:105420002268FFF78FFF2D69002DEFD101230021A6
:10543000DBE7C046D01F0020D81F0020F0B5DE46B5
:1054400057464E464546E0B585B017001C0006009D
:105450000D00FCF7B1FE0023324A12184B41002B1D
:105460005BDB314908008A4603F0BEFF01906B1CEC
:1054700003D1300003F0FEFD0500002C28D12B4B9A
:1054800098462B4B1C68002C15D0002F23D1294F98
:1054900002E02469002C0ED02368002BF9D03B6871
:1054A000002B01D0A342F4D120002A003100C047D4
:1054B0002469002CF0D1019B002B2AD1681E854164
:1054C000E8B205B03CBC90469946A246AB46F0BD5A
:1054D000194B9846D5E7174B994602ABDF1D0A23B7
:1054E0009B4602E02469002CE5D02368002BF9D00C
:1054F0004B461B68002B01D0A342F3D12A00310098
:105500002000C0475B460122390020003B70C047A5
:10551000E8E7504603F030FFD0E70122074B524244
:105520009FE7C04640420F00181900204553001065
:10553000D01F0020D81F002035530010FFFFFF7F31
:10554000F0B5CE46474680B583B06B460500DE1DFC
:105550003070FCF731FE00231A4A12184B41002B21
:105560002CDB19490800884603F03EFF174B070063
:105570001C68002C16D0164B994602E02469002CBA
:1055800010D02368002BF9D04B461B68002B01D0AC
:10559000A342F3D1200001223100FFF7D3FE24699A
:1055A000002CEED1002F05D1280003B00CBC904692
:1055B0009946F0BD404603F0DFFEF5E70122054BBA
:1055C0005242CEE740420F0018190020D01F0020A1
:1055D000D81F0020FFFFFF7F70B5040003F04AFDD5
:1055E00000230100050001222000FFF727FF084BE0
:1055F0001C68002C06D06368002B05D098472469EE
:10560000002CF8D1280070BD2469002CF3D1F9E7F3
:10561000D01F0020F0B5CE46474680B50D001600DD
:1056200083B000282CD11C4B1C4F1A685B68019278
:1056300000931B4B99461B4B98464B461C68002C0D
:1056400003D115E02469002C12D043461B68002BBF
:1056500001D0A342F6D1A368002BF3D0310028007B
:1056600098470028EEDD03B00CBC90469946F0BD8B
:105670007B6A009A9A4209D8BA6A01998A4202D38F
:1056800001204042EFE7009A9A42F9D1012000211F
:10569000FCF79CFDD1E7C046D898001000400540BB
:1056A000D01F0020D81F0020F0B54646D6464F46F2
:1056B0000138C0B515000E0001283FD8FCF77CFD6D
:1056C0000023204A12184B41002B33DB1E49A94608
:1056D0000800884603F088FE07006B1C03D13000E9
:1056E00003F0C8FC8146194B1C68002C16D0184BDF
:1056F0009A4602E02469002C10D02368002BF9D0D0
:1057000053461B68002B01D09C42F3D120004A462F
:105710003100FFF717FE2469002CEED1002F05D1D0
:1057200028001CBC90469946A246F0BD404603F0B6
:1057300023FEF5E70122074B5242C7E701256D42E0
:10574000EEE7C04640420F0018190020D01F00208D
:10575000D81F0020FFFFFF7F012040427047C04656
:10576000012040427047C046012040427047C04679
:105770000300022200209A42404170470A4A1368FF
:10578000002B05D10CE01A001B691032002B07D04A
:105790009842F8D1002902D1036913600161704772
:1057A0000029FCD01060FAE7D01F0020F0B5CE46EB
:1057B000474680B5A5B004000D00FCF7FDFC0023B2
:1057C0002A4A12184B41002B49DB294E300003F0C6
:1057D0000BFE00230700039322002B00254803A99A
:1057E000FEF762FE039B8046002B14D1224B1C68FF
:1057F000002C06D06368002B0BD098472469002C3E
:10580000F8D1002F27D1404625B00CBC90469946D0
:10581000F0BD2469ECE7184B1D689946002D22D095
:10582000164C02E02D69002D11D02B68002BF9D009
:105830002368002B01D09D42F4D1039B28001A005D
:1058400004A90193FFF77EFD2D69002DEDD14B4694
:1058500003951C68CCE7300003F08EFDD3E70122EE
:10586000074B5242B1E70395CBE7C04640420F00D9
:1058700018190020D9530010D01F0020D81F002075
:10588000FFFFFF7F0FB400B583B004A901C90191E8
:10589000FFF78CFF03B008BC04B0184710B500F048
:1058A000C7F800F0C1FA012010BDC046F0B50D1ECA
:1058B00015DD0E4B0D271A680D4B4519D3185942AB
:1058C0004B410C495B005E5E20210478A64207D064
:1058D00093691942FCD101301460A842F5D1F0BDA2
:1058E00093691942FCD11760F2E7C0464C240020AE
:1058F0000080FCBF6C24002030B50500002926DDA7
:10590000002010241B4B013D1A6893691C4219D1D9
:10591000013093691C42FCD113682B548142F4D1AD
:10592000154B1B68002B0CD050239363516B183B15
:1059300034320B401100802252010A4313600028C8
:1059400015D030BD0C4B1B68002BEDD1F7E70A4B8F
:105950001B68002B0BD050223821064B1B689A6322
:105960005A6B3433114080225201134319600320D3
:105970004042E6E74C240020241F0020064B10B5CF
:105980001B68002B06D00021044A12689163044A68
:105990001068984710BDC046241F00204C240020EA
:1059A0002C1F00201D4BF0B51A68C64698461C4BAC
:1059B0000E00D31859424B411A4F14331C000500F6
:1059C00000B53B68002807D0002B11D0164B3D6076
:1059D0001E6004BC9046F0BD002BF7D09063002100
:1059E0002000FBF7A9FD20001049FBF7E7FEEDE7DB
:1059F00020000E49FBF7D8FD01212000FBF79CFD9C
:105A00004346502238211B689A635A6B3433114045
:105A10008022520113431960D8E7C0464C2400206D
:105A20000080FCBF241F00202C1F00207D59001087
:105A300010B50C4B0C4C1B780C4B02211B780C4BFB
:105A400000202360FBF79EFC02210120FBF79AFC5B
:105A5000E12120684902FCF7B5FE01210548FFF766
:105A60008DFE10BD289E00104C2400202C9E00109E
:105A700000400340801000207047C0460022014BC8
:105A80001A707047662400204B790020FF2B0BD141
:105A90008B79002B08D1CB79012B05D1082A03D9AA
:105AA0008A78024B09301A707047C046662400207D
:105AB0000120704770B5012909D115495379107932
:105AC00009781B0203430020994202D070BD0120D7
:105AD000FCE75378012B08D0022BF7D10020642279
